{"abi":[{"type":"constructor","inputs":[],"stateMutability":"nonpayable"},{"type":"function","name":"authority","inputs":[],"outputs":[{"name":"","type":"address","internalType":"address"}],"stateMutability":"view"},{"type":"function","name":"balanceOf","inputs":[{"name":"account","type":"address","internalType":"address"},{"name":"id","type":"uint256","internalType":"uint256"}],"outputs":[{"name":"","type":"uint256","internalType":"uint256"}],"stateMutability":"view"},{"type":"function","name":"balanceOfBatch","inputs":[{"name":"accounts","type":"address[]","internalType":"address[]"},{"name":"ids","type":"uint256[]","internalType":"uint256[]"}],"outputs":[{"name":"","type":"uint256[]","internalType":"uint256[]"}],"stateMutability":"view"},{"type":"function","name":"exists","inputs":[{"name":"id","type":"uint256","internalType":"uint256"}],"outputs":[{"name":"","type":"bool","internalType":"bool"}],"stateMutability":"view"},{"type":"function","name":"initialize","inputs":[{"name":"initialAuthority","type":"address","internalType":"address"}],"outputs":[],"stateMutability":"nonpayable"},{"type":"function","name":"isApprovedForAll","inputs":[{"name":"account","type":"address","internalType":"address"},{"name":"operator","type":"address","internalType":"address"}],"outputs":[{"name":"","type":"bool","internalType":"bool"}],"stateMutability":"view"},{"type":"function","name":"isConsumingScheduledOp","inputs":[],"outputs":[{"name":"","type":"bytes4","internalType":"bytes4"}],"stateMutability":"view"},{"type":"function","name":"mint","inputs":[{"name":"account","type":"address","internalType":"address"},{"name":"id","type":"uint256","internalType":"uint256"},{"name":"amount","type":"uint256","internalType":"uint256"},{"name":"data","type":"bytes","internalType":"bytes"}],"outputs":[],"stateMutability":"nonpayable"},{"type":"function","name":"mintBatch","inputs":[{"name":"to","type":"address","internalType":"address"},{"name":"ids","type":"uint256[]","internalType":"uint256[]"},{"name":"amounts","type":"uint256[]","internalType":"uint256[]"},{"name":"data","type":"bytes","internalType":"bytes"}],"outputs":[],"stateMutability":"nonpayable"},{"type":"function","name":"pause","inputs":[],"outputs":[],"stateMutability":"nonpayable"},{"type":"function","name":"paused","inputs":[],"outputs":[{"name":"","type":"bool","internalType":"bool"}],"stateMutability":"view"},{"type":"function","name":"safeBatchTransferFrom","inputs":[{"name":"from","type":"address","internalType":"address"},{"name":"to","type":"address","internalType":"address"},{"name":"ids","type":"uint256[]","internalType":"uint256[]"},{"name":"values","type":"uint256[]","internalType":"uint256[]"},{"name":"data","type":"bytes","internalType":"bytes"}],"outputs":[],"stateMutability":"nonpayable"},{"type":"function","name":"safeTransferFrom","inputs":[{"name":"from","type":"address","internalType":"address"},{"name":"to","type":"address","internalType":"address"},{"name":"id","type":"uint256","internalType":"uint256"},{"name":"value","type":"uint256","internalType":"uint256"},{"name":"data","type":"bytes","internalType":"bytes"}],"outputs":[],"stateMutability":"nonpayable"},{"type":"function","name":"setApprovalForAll","inputs":[{"name":"operator","type":"address","internalType":"address"},{"name":"approved","type":"bool","internalType":"bool"}],"outputs":[],"stateMutability":"nonpayable"},{"type":"function","name":"setAuthority","inputs":[{"name":"newAuthority","type":"address","internalType":"address"}],"outputs":[],"stateMutability":"nonpayable"},{"type":"function","name":"setURI","inputs":[{"name":"newuri","type":"string","internalType":"string"}],"outputs":[],"stateMutability":"nonpayable"},{"type":"function","name":"supportsInterface","inputs":[{"name":"interfaceId","type":"bytes4","internalType":"bytes4"}],"outputs":[{"name":"","type":"bool","internalType":"bool"}],"stateMutability":"view"},{"type":"function","name":"totalSupply","inputs":[],"outputs":[{"name":"","type":"uint256","internalType":"uint256"}],"stateMutability":"view"},{"type":"function","name":"totalSupply","inputs":[{"name":"id","type":"uint256","internalType":"uint256"}],"outputs":[{"name":"","type":"uint256","internalType":"uint256"}],"stateMutability":"view"},{"type":"function","name":"unpause","inputs":[],"outputs":[],"stateMutability":"nonpayable"},{"type":"function","name":"uri","inputs":[{"name":"","type":"uint256","internalType":"uint256"}],"outputs":[{"name":"","type":"string","internalType":"string"}],"stateMutability":"view"},{"type":"event","name":"ApprovalForAll","inputs":[{"name":"account","type":"address","indexed":true,"internalType":"address"},{"name":"operator","type":"address","indexed":true,"internalType":"address"},{"name":"approved","type":"bool","indexed":false,"internalType":"bool"}],"anonymous":false},{"type":"event","name":"AuthorityUpdated","inputs":[{"name":"authority","type":"address","indexed":false,"internalType":"address"}],"anonymous":false},{"type":"event","name":"Initialized","inputs":[{"name":"version","type":"uint64","indexed":false,"internalType":"uint64"}],"anonymous":false},{"type":"event","name":"Paused","inputs":[{"name":"account","type":"address","indexed":false,"internalType":"address"}],"anonymous":false},{"type":"event","name":"TransferBatch","inputs":[{"name":"operator","type":"address","indexed":true,"internalType":"address"},{"name":"from","type":"address","indexed":true,"internalType":"address"},{"name":"to","type":"address","indexed":true,"internalType":"address"},{"name":"ids","type":"uint256[]","indexed":false,"internalType":"uint256[]"},{"name":"values","type":"uint256[]","indexed":false,"internalType":"uint256[]"}],"anonymous":false},{"type":"event","name":"TransferSingle","inputs":[{"name":"operator","type":"address","indexed":true,"internalType":"address"},{"name":"from","type":"address","indexed":true,"internalType":"address"},{"name":"to","type":"address","indexed":true,"internalType":"address"},{"name":"id","type":"uint256","indexed":false,"internalType":"uint256"},{"name":"value","type":"uint256","indexed":false,"internalType":"uint256"}],"anonymous":false},{"type":"event","name":"URI","inputs":[{"name":"value","type":"string","indexed":false,"internalType":"string"},{"name":"id","type":"uint256","indexed":true,"internalType":"uint256"}],"anonymous":false},{"type":"event","name":"Unpaused","inputs":[{"name":"account","type":"address","indexed":false,"internalType":"address"}],"anonymous":false},{"type":"error","name":"AccessManagedInvalidAuthority","inputs":[{"name":"authority","type":"address","internalType":"address"}]},{"type":"error","name":"AccessManagedRequiredDelay","inputs":[{"name":"caller","type":"address","internalType":"address"},{"name":"delay","type":"uint32","internalType":"uint32"}]},{"type":"error","name":"AccessManagedUnauthorized","inputs":[{"name":"caller","type":"address","internalType":"address"}]},{"type":"error","name":"ERC1155InsufficientBalance","inputs":[{"name":"sender","type":"address","internalType":"address"},{"name":"balance","type":"uint256","internalType":"uint256"},{"name":"needed","type":"uint256","internalType":"uint256"},{"name":"tokenId","type":"uint256","internalType":"uint256"}]},{"type":"error","name":"ERC1155InvalidApprover","inputs":[{"name":"approver","type":"address","internalType":"address"}]},{"type":"error","name":"ERC1155InvalidArrayLength","inputs":[{"name":"idsLength","type":"uint256","internalType":"uint256"},{"name":"valuesLength","type":"uint256","internalType":"uint256"}]},{"type":"error","name":"ERC1155InvalidOperator","inputs":[{"name":"operator","type":"address","internalType":"address"}]},{"type":"error","name":"ERC1155InvalidReceiver","inputs":[{"name":"receiver","type":"address","internalType":"address"}]},{"type":"error","name":"ERC1155InvalidSender","inputs":[{"name":"sender","type":"address","internalType":"address"}]},{"type":"error","name":"ERC1155MissingApprovalForAll","inputs":[{"name":"operator","type":"address","internalType":"address"},{"name":"owner","type":"address","internalType":"address"}]},{"type":"error","name":"EnforcedPause","inputs":[]},{"type":"error","name":"ExpectedPause","inputs":[]},{"type":"error","name":"InvalidInitialization","inputs":[]},{"type":"error","name":"NotInitializing","inputs":[]}],"bytecode":{"object":"0x608060405234801561000f575f5ffd5b5061001e61002360201b60201c565b61019e565b5f61003261012160201b60201c565b9050805f0160089054906101000a900460ff161561007c576040517ff92ee8a900000000000000000000000000000000000000000000000000000000815260040160405180910390fd5b67ffffffffffffffff8016815f015f9054906101000a900467ffffffffffffffff1667ffffffffffffffff161461011e5767ffffffffffffffff815f015f6101000a81548167ffffffffffffffff021916908367ffffffffffffffff1602179055507fc7f505b2f371ae2175ee4913f4499e1f2633a7b5936321eed1cdaeb6115181d267ffffffffffffffff6040516101159190610185565b60405180910390a15b50565b5f5f61013161013a60201b60201c565b90508091505090565b5f7ff0c57e16840df040f15088dc2f81fe391c3923bec73e23a9662efc9c229c6a005f1b905090565b5f67ffffffffffffffff82169050919050565b61017f81610163565b82525050565b5f6020820190506101985f830184610176565b92915050565b6133b8806101ab5f395ff3fe608060405234801561000f575f5ffd5b5060043610610134575f3560e01c80635c975abb116100b6578063a22cb4651161007a578063a22cb46514610322578063bd85b0391461033e578063bf7e214f1461036e578063c4d66de81461038c578063e985e9c5146103a8578063f242432a146103d857610134565b80635c975abb146102a4578063731133e9146102c25780637a9e5e4b146102de5780638456cb59146102fa5780638fb360371461030457610134565b80631f7fdffa116100fd5780631f7fdffa146102025780632eb2c2d61461021e5780633f4ba83a1461023a5780634e1273f4146102445780634f558e791461027457610134565b8062fdd58e1461013857806301ffc9a71461016857806302fe5305146101985780630e89341c146101b457806318160ddd146101e4575b5f5ffd5b610152600480360381019061014d91906121f6565b6103f4565b60405161015f9190612243565b60405180910390f35b610182600480360381019061017d91906122b1565b610457565b60405161018f91906122f6565b60405180910390f35b6101b260048036038101906101ad919061244b565b610538565b005b6101ce60048036038101906101c99190612492565b61055c565b6040516101db919061251d565b60405180910390f35b6101ec6105fc565b6040516101f99190612243565b60405180910390f35b61021c6004803603810190610217919061269f565b610613565b005b61023860048036038101906102339190612757565b61063d565b005b610242610662565b005b61025e600480360381019061025991906128e2565b610684565b60405161026b9190612a0f565b60405180910390f35b61028e60048036038101906102899190612492565b61078e565b60405161029b91906122f6565b60405180910390f35b6102ac6107a1565b6040516102b991906122f6565b60405180910390f35b6102dc60048036038101906102d79190612a2f565b6107c3565b005b6102f860048036038101906102f39190612aaf565b6107ed565b005b6103026108d7565b005b61030c6108f9565b6040516103199190612ae9565b60405180910390f35b61033c60048036038101906103379190612b2c565b610932565b005b61035860048036038101906103539190612492565b610948565b6040516103659190612243565b60405180910390f35b61037661096f565b6040516103839190612b79565b60405180910390f35b6103a660048036038101906103a19190612aaf565b6109a4565b005b6103c260048036038101906103bd9190612b92565b610b4c565b6040516103cf91906122f6565b60405180910390f35b6103f260048036038101906103ed9190612bd0565b610be8565b005b5f5f6103fe610c0d565b9050805f015f8481526020019081526020015f205f8573ffffffffffffffffffffffffffffffffffffffff1673ffffffffffffffffffffffffffffffffffffffff1681526020019081526020015f205491505092915050565b5f7fd9b67a26000000000000000000000000000000000000000000000000000000007bffffffffffffffffffffffffffffffffffffffffffffffffffffffff1916827bffffffffffffffffffffffffffffffffffffffffffffffffffffffff1916148061052157507f0e89341c000000000000000000000000000000000000000000000000000000007bffffffffffffffffffffffffffffffffffffffffffffffffffffffff1916827bffffffffffffffffffffffffffffffffffffffffffffffffffffffff1916145b80610531575061053082610c34565b5b9050919050565b610550610543610c9d565b61054b610ca4565b610cb0565b61055981610df7565b50565b60605f610567610c0d565b905080600201805461057890612c90565b80601f01602080910402602001604051908101604052809291908181526020018280546105a490612c90565b80156105ef5780601f106105c6576101008083540402835291602001916105ef565b820191905f5260205f20905b8154815290600101906020018083116105d257829003601f168201915b5050505050915050919050565b5f5f610606610e18565b9050806001015491505090565b61062b61061e610c9d565b610626610ca4565b610cb0565b61063784848484610e3f565b50505050565b61064e610648610c9d565b86610ec4565b61065b8585858585610f4f565b5050505050565b61067a61066d610c9d565b610675610ca4565b610cb0565b610682611045565b565b606081518351146106d057815183516040517f5b0599910000000000000000000000000000000000000000000000000000000081526004016106c7929190612cc0565b60405180910390fd5b5f835167ffffffffffffffff8111156106ec576106eb612327565b5b60405190808252806020026020018201604052801561071a5781602001602082028036833780820191505090505b5090505f5f90505b84518110156107835761075961074182876110b390919063ffffffff16565b61075483876110c690919063ffffffff16565b6103f4565b82828151811061076c5761076b612ce7565b5b602002602001018181525050806001019050610722565b508091505092915050565b5f5f61079983610948565b119050919050565b5f5f6107ab6110d9565b9050805f015f9054906101000a900460ff1691505090565b6107db6107ce610c9d565b6107d6610ca4565b610cb0565b6107e784848484611100565b50505050565b5f6107f6610c9d565b905061080061096f565b73ffffffffffffffffffffffffffffffffffffffff168173ffffffffffffffffffffffffffffffffffffffff161461086f57806040517f068ca9d80000000000000000000000000000000000000000000000000000000081526004016108669190612b79565b60405180910390fd5b5f8273ffffffffffffffffffffffffffffffffffffffff163b036108ca57816040517fc2f31e5e0000000000000000000000000000000000000000000000000000000081526004016108c19190612b79565b60405180910390fd5b6108d382611196565b5050565b6108ef6108e2610c9d565b6108ea610ca4565b610cb0565b6108f761121d565b565b5f5f61090361128c565b9050805f0160149054906101000a900460ff16610923575f60e01b61092c565b638fb3603760e01b5b91505090565b61094461093d610c9d565b83836112b3565b5050565b5f5f610952610e18565b9050805f015f8481526020019081526020015f2054915050919050565b5f5f61097961128c565b9050805f015f9054906101000a900473ffffffffffffffffffffffffffffffffffffffff1691505090565b5f6109ad61149a565b90505f815f0160089054906101000a900460ff161590505f825f015f9054906101000a900467ffffffffffffffff1690505f5f8267ffffffffffffffff161480156109f55750825b90505f60018367ffffffffffffffff16148015610a2857505f3073ffffffffffffffffffffffffffffffffffffffff163b145b905081158015610a36575080155b15610a6d576040517ff92ee8a900000000000000000000000000000000000000000000000000000000815260040160405180910390fd5b6001855f015f6101000a81548167ffffffffffffffff021916908367ffffffffffffffff1602179055508315610aba576001855f0160086101000a81548160ff0219169083151502179055505b610ad160405180602001604052805f8152506114ad565b610ada866114c1565b610ae26114d5565b610aea6114df565b8315610b44575f855f0160086101000a81548160ff0219169083151502179055507fc7f505b2f371ae2175ee4913f4499e1f2633a7b5936321eed1cdaeb6115181d26001604051610b3b9190612d69565b60405180910390a15b505050505050565b5f5f610b56610c0d565b9050806001015f8573ffffffffffffffffffffffffffffffffffffffff1673ffffffffffffffffffffffffffffffffffffffff1681526020019081526020015f205f8473ffffffffffffffffffffffffffffffffffffffff1673ffffffffffffffffffffffffffffffffffffffff1681526020019081526020015f205f9054906101000a900460ff1691505092915050565b610bf9610bf3610c9d565b86610ec4565b610c0685858585856114e9565b5050505050565b5f7f88be536d5240c274a3b1d3a1be54482fd9caa294f08c62a7cde569f49a3c4500905090565b5f7f01ffc9a7000000000000000000000000000000000000000000000000000000007bffffffffffffffffffffffffffffffffffffffffffffffffffffffff1916827bffffffffffffffffffffffffffffffffffffffffffffffffffffffff1916149050919050565b5f33905090565b365f5f36915091509091565b5f610cb961128c565b90505f5f610ced610cc861096f565b873088885f90600492610cdd93929190612d8a565b90610ce89190612dda565b6115f0565b9150915081610def575f8163ffffffff161115610db1576001835f0160146101000a81548160ff021916908315150217905550610d2861096f565b73ffffffffffffffffffffffffffffffffffffffff166394c7d7ee8787876040518463ffffffff1660e01b8152600401610d6493929190612e74565b5f604051808303815f87803b158015610d7b575f5ffd5b505af1158015610d8d573d5f5f3e3d5ffd5b505050505f835f0160146101000a81548160ff021916908315150217905550610dee565b856040517f068ca9d8000000000000000000000000000000000000000000000000000000008152600401610de59190612b79565b60405180910390fd5b5b505050505050565b5f610e00610c0d565b905081816002019081610e139190613040565b505050565b5f7f4a593662ee04d27b6a00ebb31be7fe0c102c2ade82a7c5d764f2df05dc4e2800905090565b5f73ffffffffffffffffffffffffffffffffffffffff168473ffffffffffffffffffffffffffffffffffffffff1603610eaf575f6040517f57f447ce000000000000000000000000000000000000000000000000000000008152600401610ea69190612b79565b60405180910390fd5b610ebe5f858585856001611684565b50505050565b8173ffffffffffffffffffffffffffffffffffffffff168173ffffffffffffffffffffffffffffffffffffffff1614158015610f075750610f058183610b4c565b155b15610f4b5781816040517fe237d922000000000000000000000000000000000000000000000000000000008152600401610f4292919061310f565b60405180910390fd5b5050565b5f73ffffffffffffffffffffffffffffffffffffffff168473ffffffffffffffffffffffffffffffffffffffff1603610fbf575f6040517f57f447ce000000000000000000000000000000000000000000000000000000008152600401610fb69190612b79565b60405180910390fd5b5f73ffffffffffffffffffffffffffffffffffffffff168573ffffffffffffffffffffffffffffffffffffffff160361102f575f6040517f01a835140000000000000000000000000000000000000000000000000000000081526004016110269190612b79565b60405180910390fd5b61103e85858585856001611684565b5050505050565b61104d61172e565b5f6110566110d9565b90505f815f015f6101000a81548160ff0219169083151502179055507f5db9ee0a495bf2e6ff9c91a7834c1ba4fdd244a5e8aa4e537bd38aeae4b073aa61109b610c9d565b6040516110a89190612b79565b60405180910390a150565b5f60208202602084010151905092915050565b5f60208202602084010151905092915050565b5f7fcd5ed15c6e187e77e9aee88184c21f4f2182ab5827cb3b7e07fbedcd63f03300905090565b5f73ffffffffffffffffffffffffffffffffffffffff168473ffffffffffffffffffffffffffffffffffffffff1603611170575f6040517f57f447ce0000000000000000000000000000000000000000000000000000000081526004016111679190612b79565b60405180910390fd5b5f5f61117c858561176e565b9150915061118e5f878484875f611684565b505050505050565b5f61119f61128c565b905081815f015f6101000a81548173ffffffffffffffffffffffffffffffffffffffff021916908373ffffffffffffffffffffffffffffffffffffffff1602179055507f2f658b440c35314f52658ea8a740e05b284cdc84dc9ae01e891f21b8933e7cad826040516112119190612b79565b60405180910390a15050565b61122561179e565b5f61122e6110d9565b90506001815f015f6101000a81548160ff0219169083151502179055507f62e78cea01bee320cd4e420270b5ea74000d11b0c9f74754ebdbfc544b05a258611274610c9d565b6040516112819190612b79565b60405180910390a150565b5f7ff3177357ab46d8af007ab3fdb9af81da189e1068fefdc0073dca88a2cab40a00905090565b5f6112bc610c0d565b90505f73ffffffffffffffffffffffffffffffffffffffff168473ffffffffffffffffffffffffffffffffffffffff160361132e575f6040517f3e31884e0000000000000000000000000000000000000000000000000000000081526004016113259190612b79565b60405180910390fd5b5f73ffffffffffffffffffffffffffffffffffffffff168373ffffffffffffffffffffffffffffffffffffffff160361139e575f6040517fced3e1000000000000000000000000000000000000000000000000000000000081526004016113959190612b79565b60405180910390fd5b81816001015f8673ffffffffffffffffffffffffffffffffffffffff1673ffffffffffffffffffffffffffffffffffffffff1681526020019081526020015f205f8573ffffffffffffffffffffffffffffffffffffffff1673ffffffffffffffffffffffffffffffffffffffff1681526020019081526020015f205f6101000a81548160ff0219169083151502179055508273ffffffffffffffffffffffffffffffffffffffff168473ffffffffffffffffffffffffffffffffffffffff167f17307eab39ab6107e8899845ad3d59bd9653f200f220920489ca2b5937696c318460405161148c91906122f6565b60405180910390a350505050565b5f5f6114a46117df565b90508091505090565b6114b5611808565b6114be81611848565b50565b6114c9611808565b6114d28161185c565b50565b6114dd611808565b565b6114e7611808565b565b5f73ffffffffffffffffffffffffffffffffffffffff168473ffffffffffffffffffffffffffffffffffffffff1603611559575f6040517f57f447ce0000000000000000000000000000000000000000000000000000000081526004016115509190612b79565b60405180910390fd5b5f73ffffffffffffffffffffffffffffffffffffffff168573ffffffffffffffffffffffffffffffffffffffff16036115c9575f6040517f01a835140000000000000000000000000000000000000000000000000000000081526004016115c09190612b79565b60405180910390fd5b5f5f6115d5858561176e565b915091506115e787878484875f611684565b50505050505050565b5f5f5f85858560405160240161160893929190613136565b60405160208183030381529060405263b700961360e01b6020820180517bffffffffffffffffffffffffffffffffffffffffffffffffffffffff838183161783525050505090505f5f525f60205260405f8251602084018a5afa1561167a575f51925060205191508160201c15820291505b5094509492505050565b61169086868686611870565b5f73ffffffffffffffffffffffffffffffffffffffff168573ffffffffffffffffffffffffffffffffffffffff1614611726575f6116cc610c9d565b905081156116e7576116e2818888888888611882565b611724565b5f6116fb5f876110c690919063ffffffff16565b90505f6117115f876110c690919063ffffffff16565b9050611721838a8a85858a611a31565b50505b505b505050505050565b6117366107a1565b61176c576040517f8dfc202b00000000000000000000000000000000000000000000000000000000815260040160405180910390fd5b565b60608060405191506001825283602083015260408201905060018152826020820152604081016040529250929050565b6117a66107a1565b156117dd576040517fd93c066500000000000000000000000000000000000000000000000000000000815260040160405180910390fd5b565b5f7ff0c57e16840df040f15088dc2f81fe391c3923bec73e23a9662efc9c229c6a005f1b905090565b611810611be0565b611846576040517fd7e6bcf800000000000000000000000000000000000000000000000000000000815260040160405180910390fd5b565b611850611808565b61185981610df7565b50565b611864611808565b61186d81611196565b50565b61187c84848484611bfe565b50505050565b5f8473ffffffffffffffffffffffffffffffffffffffff163b1115611a29578373ffffffffffffffffffffffffffffffffffffffff1663bc197c8187878686866040518663ffffffff1660e01b81526004016118e29594939291906131ad565b6020604051808303815f875af192505050801561191d57506040513d601f19601f8201168201806040525081019061191a9190613227565b60015b61199e573d805f811461194b576040519150601f19603f3d011682016040523d82523d5f602084013e611950565b606091505b505f81510361199657846040517f57f447ce00000000000000000000000000000000000000000000000000000000815260040161198d9190612b79565b60405180910390fd5b805160208201fd5b63bc197c8160e01b7bffffffffffffffffffffffffffffffffffffffffffffffffffffffff1916817bffffffffffffffffffffffffffffffffffffffffffffffffffffffff191614611a2757846040517f57f447ce000000000000000000000000000000000000000000000000000000008152600401611a1e9190612b79565b60405180910390fd5b505b505050505050565b5f8473ffffffffffffffffffffffffffffffffffffffff163b1115611bd8578373ffffffffffffffffffffffffffffffffffffffff1663f23a6e6187878686866040518663ffffffff1660e01b8152600401611a91959493929190613252565b6020604051808303815f875af1925050508015611acc57506040513d601f19601f82011682018060405250810190611ac99190613227565b60015b611b4d573d805f8114611afa576040519150601f19603f3d011682016040523d82523d5f602084013e611aff565b606091505b505f815103611b4557846040517f57f447ce000000000000000000000000000000000000000000000000000000008152600401611b3c9190612b79565b60405180910390fd5b805160208201fd5b63f23a6e6160e01b7bffffffffffffffffffffffffffffffffffffffffffffffffffffffff1916817bffffffffffffffffffffffffffffffffffffffffffffffffffffffff191614611bd657846040517f57f447ce000000000000000000000000000000000000000000000000000000008152600401611bcd9190612b79565b60405180910390fd5b505b505050505050565b5f611be961149a565b5f0160089054906101000a900460ff16905090565b5f611c07610e18565b9050611c1585858585611d99565b5f73ffffffffffffffffffffffffffffffffffffffff168573ffffffffffffffffffffffffffffffffffffffff1603611ce1575f5f90505f5f90505b8451811015611cc4575f611c6e82866110c690919063ffffffff16565b905080845f015f611c88858a6110c690919063ffffffff16565b81526020019081526020015f205f828254611ca391906132d7565b925050819055508083611cb691906132d7565b925050806001019050611c51565b5080826001015f828254611cd891906132d7565b92505081905550505b5f73ffffffffffffffffffffffffffffffffffffffff168473ffffffffffffffffffffffffffffffffffffffff1603611d92575f5f90505f5f90505b8451811015611d7e575f611d3a82866110c690919063ffffffff16565b905080845f015f611d54858a6110c690919063ffffffff16565b81526020019081526020015f205f8282540392505081905550808301925050806001019050611d1d565b5080826001015f8282540392505081905550505b5050505050565b611da161179e565b611dad84848484611db3565b50505050565b5f611dbc610c0d565b90508151835114611e0857825182516040517f5b059991000000000000000000000000000000000000000000000000000000008152600401611dff929190612cc0565b60405180910390fd5b5f611e11610c9d565b90505f5f90505b8451811015612016575f611e3582876110c690919063ffffffff16565b90505f611e4b83876110c690919063ffffffff16565b90505f73ffffffffffffffffffffffffffffffffffffffff168973ffffffffffffffffffffffffffffffffffffffff1614611f72575f855f015f8481526020019081526020015f205f8b73ffffffffffffffffffffffffffffffffffffffff1673ffffffffffffffffffffffffffffffffffffffff1681526020019081526020015f2054905081811015611f1c57898183856040517f03dee4c5000000000000000000000000000000000000000000000000000000008152600401611f13949392919061330a565b60405180910390fd5b818103865f015f8581526020019081526020015f205f8c73ffffffffffffffffffffffffffffffffffffffff1673ffffffffffffffffffffffffffffffffffffffff1681526020019081526020015f2081905550505b5f73ffffffffffffffffffffffffffffffffffffffff168873ffffffffffffffffffffffffffffffffffffffff16146120095780855f015f8481526020019081526020015f205f8a73ffffffffffffffffffffffffffffffffffffffff1673ffffffffffffffffffffffffffffffffffffffff1681526020019081526020015f205f82825461200191906132d7565b925050819055505b5050806001019050611e18565b5060018451036120d1575f6120345f866110c690919063ffffffff16565b90505f61204a5f866110c690919063ffffffff16565b90508673ffffffffffffffffffffffffffffffffffffffff168873ffffffffffffffffffffffffffffffffffffffff168473ffffffffffffffffffffffffffffffffffffffff167fc3d58168c5ae7397731d063d5bbf3d657854427343f4c083240f7aacaa2d0f6285856040516120c2929190612cc0565b60405180910390a45050612150565b8473ffffffffffffffffffffffffffffffffffffffff168673ffffffffffffffffffffffffffffffffffffffff168273ffffffffffffffffffffffffffffffffffffffff167f4a39dc06d4c0dbc64b70af90fd698a233a518aa5d07e595d983b8c0526c8f7fb878760405161214792919061334d565b60405180910390a45b505050505050565b5f604051905090565b5f5ffd5b5f5ffd5b5f73ffffffffffffffffffffffffffffffffffffffff82169050919050565b5f61219282612169565b9050919050565b6121a281612188565b81146121ac575f5ffd5b50565b5f813590506121bd81612199565b92915050565b5f819050919050565b6121d5816121c3565b81146121df575f5ffd5b50565b5f813590506121f0816121cc565b92915050565b5f5f6040838503121561220c5761220b612161565b5b5f612219858286016121af565b925050602061222a858286016121e2565b9150509250929050565b61223d816121c3565b82525050565b5f6020820190506122565f830184612234565b92915050565b5f7fffffffff0000000000000000000000000000000000000000000000000000000082169050919050565b6122908161225c565b811461229a575f5ffd5b50565b5f813590506122ab81612287565b92915050565b5f602082840312156122c6576122c5612161565b5b5f6122d38482850161229d565b91505092915050565b5f8115159050919050565b6122f0816122dc565b82525050565b5f6020820190506123095f8301846122e7565b92915050565b5f5ffd5b5f5ffd5b5f601f19601f8301169050919050565b7f4e487b71000000000000000000000000000000000000000000000000000000005f52604160045260245ffd5b61235d82612317565b810181811067ffffffffffffffff8211171561237c5761237b612327565b5b80604052505050565b5f61238e612158565b905061239a8282612354565b919050565b5f67ffffffffffffffff8211156123b9576123b8612327565b5b6123c282612317565b9050602081019050919050565b828183375f83830152505050565b5f6123ef6123ea8461239f565b612385565b90508281526020810184848401111561240b5761240a612313565b5b6124168482856123cf565b509392505050565b5f82601f8301126124325761243161230f565b5b81356124428482602086016123dd565b91505092915050565b5f602082840312156124605761245f612161565b5b5f82013567ffffffffffffffff81111561247d5761247c612165565b5b6124898482850161241e565b91505092915050565b5f602082840312156124a7576124a6612161565b5b5f6124b4848285016121e2565b91505092915050565b5f81519050919050565b5f82825260208201905092915050565b8281835e5f83830152505050565b5f6124ef826124bd565b6124f981856124c7565b93506125098185602086016124d7565b61251281612317565b840191505092915050565b5f6020820190508181035f83015261253581846124e5565b905092915050565b5f67ffffffffffffffff82111561255757612556612327565b5b602082029050602081019050919050565b5f5ffd5b5f61257e6125798461253d565b612385565b905080838252602082019050602084028301858111156125a1576125a0612568565b5b835b818110156125ca57806125b688826121e2565b8452602084019350506020810190506125a3565b5050509392505050565b5f82601f8301126125e8576125e761230f565b5b81356125f884826020860161256c565b91505092915050565b5f67ffffffffffffffff82111561261b5761261a612327565b5b61262482612317565b9050602081019050919050565b5f61264361263e84612601565b612385565b90508281526020810184848401111561265f5761265e612313565b5b61266a8482856123cf565b509392505050565b5f82601f8301126126865761268561230f565b5b8135612696848260208601612631565b91505092915050565b5f5f5f5f608085870312156126b7576126b6612161565b5b5f6126c4878288016121af565b945050602085013567ffffffffffffffff8111156126e5576126e4612165565b5b6126f1878288016125d4565b935050604085013567ffffffffffffffff81111561271257612711612165565b5b61271e878288016125d4565b925050606085013567ffffffffffffffff81111561273f5761273e612165565b5b61274b87828801612672565b91505092959194509250565b5f5f5f5f5f60a086880312156127705761276f612161565b5b5f61277d888289016121af565b955050602061278e888289016121af565b945050604086013567ffffffffffffffff8111156127af576127ae612165565b5b6127bb888289016125d4565b935050606086013567ffffffffffffffff8111156127dc576127db612165565b5b6127e8888289016125d4565b925050608086013567ffffffffffffffff81111561280957612808612165565b5b61281588828901612672565b9150509295509295909350565b5f67ffffffffffffffff82111561283c5761283b612327565b5b602082029050602081019050919050565b5f61285f61285a84612822565b612385565b9050808382526020820190506020840283018581111561288257612881612568565b5b835b818110156128ab578061289788826121af565b845260208401935050602081019050612884565b5050509392505050565b5f82601f8301126128c9576128c861230f565b5b81356128d984826020860161284d565b91505092915050565b5f5f604083850312156128f8576128f7612161565b5b5f83013567ffffffffffffffff81111561291557612914612165565b5b612921858286016128b5565b925050602083013567ffffffffffffffff81111561294257612941612165565b5b61294e858286016125d4565b9150509250929050565b5f81519050919050565b5f82825260208201905092915050565b5f819050602082019050919050565b61298a816121c3565b82525050565b5f61299b8383612981565b60208301905092915050565b5f602082019050919050565b5f6129bd82612958565b6129c78185612962565b93506129d283612972565b805f5b83811015612a025781516129e98882612990565b97506129f4836129a7565b9250506001810190506129d5565b5085935050505092915050565b5f6020820190508181035f830152612a2781846129b3565b905092915050565b5f5f5f5f60808587031215612a4757612a46612161565b5b5f612a54878288016121af565b9450506020612a65878288016121e2565b9350506040612a76878288016121e2565b925050606085013567ffffffffffffffff811115612a9757612a96612165565b5b612aa387828801612672565b91505092959194509250565b5f60208284031215612ac457612ac3612161565b5b5f612ad1848285016121af565b91505092915050565b612ae38161225c565b82525050565b5f602082019050612afc5f830184612ada565b92915050565b612b0b816122dc565b8114612b15575f5ffd5b50565b5f81359050612b2681612b02565b92915050565b5f5f60408385031215612b4257612b41612161565b5b5f612b4f858286016121af565b9250506020612b6085828601612b18565b9150509250929050565b612b7381612188565b82525050565b5f602082019050612b8c5f830184612b6a565b92915050565b5f5f60408385031215612ba857612ba7612161565b5b5f612bb5858286016121af565b9250506020612bc6858286016121af565b9150509250929050565b5f5f5f5f5f60a08688031215612be957612be8612161565b5b5f612bf6888289016121af565b9550506020612c07888289016121af565b9450506040612c18888289016121e2565b9350506060612c29888289016121e2565b925050608086013567ffffffffffffffff811115612c4a57612c49612165565b5b612c5688828901612672565b9150509295509295909350565b7f4e487b71000000000000000000000000000000000000000000000000000000005f52602260045260245ffd5b5f6002820490506001821680612ca757607f821691505b602082108103612cba57612cb9612c63565b5b50919050565b5f604082019050612cd35f830185612234565b612ce06020830184612234565b9392505050565b7f4e487b71000000000000000000000000000000000000000000000000000000005f52603260045260245ffd5b5f819050919050565b5f67ffffffffffffffff82169050919050565b5f819050919050565b5f612d53612d4e612d4984612d14565b612d30565b612d1d565b9050919050565b612d6381612d39565b82525050565b5f602082019050612d7c5f830184612d5a565b92915050565b5f5ffd5b5f5ffd5b5f5f85851115612d9d57612d9c612d82565b5b83861115612dae57612dad612d86565b5b6001850283019150848603905094509492505050565b5f82905092915050565b5f82821b905092915050565b5f612de58383612dc4565b82612df0813561225c565b92506004821015612e3057612e2b7fffffffff0000000000000000000000000000000000000000000000000000000083600403600802612dce565b831692505b505092915050565b5f82825260208201905092915050565b5f612e538385612e38565b9350612e608385846123cf565b612e6983612317565b840190509392505050565b5f604082019050612e875f830186612b6a565b8181036020830152612e9a818486612e48565b9050949350505050565b5f819050815f5260205f209050919050565b5f6020601f8301049050919050565b5f60088302612ef47fffffffffffffffffffffffffffffffffffffffffffffffffffffffffffffffff82612dce565b612efe8683612dce565b95508019841693508086168417925050509392505050565b5f612f30612f2b612f26846121c3565b612d30565b6121c3565b9050919050565b5f819050919050565b612f4983612f16565b612f5d612f5582612f37565b848454612ec5565b825550505050565b5f5f905090565b612f74612f65565b612f7f818484612f40565b505050565b5f5b82811015612fa557612f9a5f828401612f6c565b600181019050612f86565b505050565b601f821115612ff85782821115612ff757612fc481612ea4565b612fcd83612eb6565b612fd685612eb6565b6020861015612fe3575f90505b808301612ff282840382612f84565b505050505b5b505050565b5f82821c905092915050565b5f6130185f1984600802612ffd565b1980831691505092915050565b5f6130308383613009565b9150826002028217905092915050565b613049826124bd565b67ffffffffffffffff81111561306257613061612327565b5b61306c8254612c90565b613077828285612faa565b5f60209050601f8311600181146130a8575f8415613096578287015190505b6130a08582613025565b865550613107565b601f1984166130b686612ea4565b5f5b828110156130dd578489015182556001820191506020850194506020810190506130b8565b868310156130fa57848901516130f6601f891682613009565b8355505b6001600288020188555050505b505050505050565b5f6040820190506131225f830185612b6a565b61312f6020830184612b6a565b9392505050565b5f6060820190506131495f830186612b6a565b6131566020830185612b6a565b6131636040830184612ada565b949350505050565b5f81519050919050565b5f61317f8261316b565b6131898185612e38565b93506131998185602086016124d7565b6131a281612317565b840191505092915050565b5f60a0820190506131c05f830188612b6a565b6131cd6020830187612b6a565b81810360408301526131df81866129b3565b905081810360608301526131f381856129b3565b905081810360808301526132078184613175565b90509695505050505050565b5f8151905061322181612287565b92915050565b5f6020828403121561323c5761323b612161565b5b5f61324984828501613213565b91505092915050565b5f60a0820190506132655f830188612b6a565b6132726020830187612b6a565b61327f6040830186612234565b61328c6060830185612234565b818103608083015261329e8184613175565b90509695505050505050565b7f4e487b71000000000000000000000000000000000000000000000000000000005f52601160045260245ffd5b5f6132e1826121c3565b91506132ec836121c3565b9250828201905080821115613304576133036132aa565b5b92915050565b5f60808201905061331d5f830187612b6a565b61332a6020830186612234565b6133376040830185612234565b6133446060830184612234565b95945050505050565b5f6040820190508181035f83015261336581856129b3565b9050818103602083015261337981846129b3565b9050939250505056fea26469706673582212209cbfc6c8250268c129726965ff5947f6a47098dfd18c0a42570235d4d4ae4b6b64736f6c63430008210033","linkReferences":{}},"methodIdentifiers":{"authority()":"bf7e214f","balanceOf(address,uint256)":"00fdd58e","balanceOfBatch(address[],uint256[])":"4e1273f4","exists(uint256)":"4f558e79","initialize(address)":"c4d66de8","isApprovedForAll(address,address)":"e985e9c5","isConsumingScheduledOp()":"8fb36037","mint(address,uint256,uint256,bytes)":"731133e9","mintBatch(address,uint256[],uint256[],bytes)":"1f7fdffa","pause()":"8456cb59","paused()":"5c975abb","safeBatchTransferFrom(address,address,uint256[],uint256[],bytes)":"2eb2c2d6","safeTransferFrom(address,address,uint256,uint256,bytes)":"f242432a","setApprovalForAll(address,bool)":"a22cb465","setAuthority(address)":"7a9e5e4b","setURI(string)":"02fe5305","supportsInterface(bytes4)":"01ffc9a7","totalSupply()":"18160ddd","totalSupply(uint256)":"bd85b039","unpause()":"3f4ba83a","uri(uint256)":"0e89341c"},"id":26}